:04000000020089323F
:03000B0002033AB3
:0100130032BA
:01001B0032B2
:030023000203686D
:01002B0032A2
:01003300329A
:01003B003292
:01004300328A
:01004B003282
:01005300327A
:01005B003272
:01006300326A
:01006B003262
:03007300020A3D41
:03007B0002082C4C
:03008300020A0A64
:0600E200C200C201D202BF
:0301100002008664
:0300860002020C67
:20011300758400758840758922758E18758CE7758DAF75840075C80475C91875CADC75CBD7
:200133000B75840175C80475CADC75CBFD75840275C80475C90275CA8D75CB342275840037
:200153007598502275840075C04175CFE92275840075BB0175BCFE75E88C2275840075D1AC
:20017300032275840F75A40175A69F75E10775E3402275840F758C677EB87F0BEE24FFFC17
:20019300EF34FFFD8C068D07EC4D70F0E58C30E7FB7597012275A89275E706221201131251
:2001B300015012015712016112016E1201751201851201A822AF188F068E047D008C828D79
:2001D30083A3751C808D1DC0071210CDAC828C068E82C0061208DD12035CD006D007EEB527
:2001F30007D7221201AF7584001202EE120485751706758201120800227F00C0071201F67F
:20021300120432120A1BD007209707C007120A17D00720961110020280051204327F00C0FF
:2002330007120A1BD007209509D202C007120A1BD007300007C007120A1BD007100302808E
:200253000CAE0ABE6207C0071201C8D007100E028077851582851683C007120A488515828F
:200273008516831209DCD00730025E8F82C007120623851582851683120F71AB82AC83AD07
:20029300F0FE750C00750D80750E89750F4475100075114075122C7513458B828C838DF0A2
:2002B300EE12066E858214D0078F82C0071207A3D0078F057E008D828E83A3751C808E1DC9
:1702D3001210CDAD82AE838D07C007120A251202EAD00702021B2213
:0500E800E4F508F50934
:2002EA0075FFA5225389FE438902C28CC28D758CE7758AE7D2A9D28C22AE82AF83EE4F60AC
:20030A00159003E8C007C006120321D006D0071EBEFF011F80E722AE82AF83AC08AD09E59E
:20032A0008C39CFAE5099DFBC3EA9EEB9F40F022C0E0C0D074012508F508E43509F509C2F4
:06034A008DD0D0D0E0329E
:0500ED00750A00C203CA
:20035000AE984306108E98225398EF228582991202EA10990280FB22309807D20385990AF8
:03037000C29832FE
:0300F200750B008B
:20037300D2A3A20592A0A205B392A1A20492A200000000D2A4000000000000000075840F37
:2003930085C88275840000000000C2A400000000000000000000000022AF82C0071202EA04
:2003B300D007C204A2079205C007120373E582D00720E7EEC2A3A20792A0A207B392A1A25A
:2003D3000692A275840F8FC875840000000000D2A4000000000000000000000000C2A47527
:2003F300840F75C8FF758400D2A300000000000000000000000022AF8253077F430740C235
:2004130006A20892078F821203AC22AF825307074307B8C206A20992078F821203AC227F79
:2004330000C2098F82C00712041ED007D2098F82C00712041EC20875820012040AD20875E4
:20045300820012040AD0077E00D206C207758200C007C0061203ACD206D2077582001203EF
:20047300ACD006D0070EBE400040DE0FBF080040B022C2A4D2A5A2A592A1A2A192A0758439
:200493000F75C8FF7584001202EAC204C205120373E58220E7F41202EAC204D2051203736D
:2004B300E58220E7F4C206C20775823F1203ACC206D20775823F1203ACC206C207758240DF
:2004D3001203ACC206D2077582401203ACC206C2077582B81203ACC206D2077582B8120349
:2004F300ACC206C2077582C01203ACC206D2077582C01203AC22AF8274F8250B40047E006A
:2005130080027E01BF01004030EF24F7402BEF14FDC2098D82C00512041ED005D2098D8290
:2005330012041EC20875820012040AD20875820012040A750B000206227D00EF24E0F51C77
:20055300ED34FFF51D900005C006120E65AD82AF83D006ED2496FDEF3411FF8D828F83E463
:2005730093FCEE24FF920AD206A20A92078C82C007C0051203ACD005D0078D828F83A3E460
:2005930093FED206A20A92078E82C007C0051203ACD005D0078D828F83A3A3E493FED206DD
:2005B300A20A92078E82C007C0051203ACD005D0078D828F83A3A3A3E493FED206A20A9245
:2005D300078E82C007C0051203ACD005D0078D828F83A3A3A3A3E493FFD206A20A92078F29
:2005F300821203ACD206A20A92077582001203ACD206A20A92077582001203ACD206A20A77
:2006130092077582001203ACE50B04540FF50B22AF8274405FFE53073F7D00EE24FF920BF7
:2006330092098D82C007C006C00512041ED005D006D007A20B92088F82C007C006C0051239
:20065300040AD206A20B92077582001203ACD005D006D0070DBD080040C122AC82AD83AE20
:20067300F0FFC00CC00DC00EC00F8C828D838EF0EF120CDBAC82AD83AEF0FFE58124FCF548
:2006930081C004C005C006C00790000075F07C7442120CE6AC82AD83AEF0FFE58124FCF50F
:2006B30081C007C006C005C004C00CC00DC00EC00F8510828511838512F0E513120CDBA80A
:2006D30082A983AAF0FBE58124FCF581D004D005D006D007C000C001C002C0038C828D834E
:2006F3008EF0EF120FE6AC82AD83AEF0FFE58124FCF581C007C006C005C004E4C0E0C0E042
:20071300747CC0E07442C0E08C828D838EF0EF120E35E58124FCF581D004D005D006D007AE
:20073300E58224FF920C400575823F8062C007C006C005C004E4C0E0C0E0C0E0C0E08C8299
:200753008D838EF0EF120DEAE58124FCF581D004D005D006D007E58224FF920C400575824A
:2007730000802CE4C0E0C0E0C0E0743FC0E08C828D838EF0EF120ECFAC82AD83AEF0FFE549
:200793008124FCF5818C828D838EF0EF1210C522E582FF30E6047E0180027E0074075514B8
:2007B300D39407F4FDE514C423541FFC7407C39CF582EE24FF920D9209C007C00512041E1C
:2007D300D005D007743F5FF582A20D9208C00512040AD0058DF005F07403800225E0D5F099
:0D07F300FBF582D206A20D92071203AC2284
:20119600000000000000005F00000007000700147F147F14242A7F2A122313086462364906
:2011B6005522500005030000001C2241000041221C00082A1C2A0808083E080800503000EE
:2011D600000808080808003030000020100804023E5149453E00427F400042615149462133
:2011F60041454B311814127F1027454545393C4A4949300171090503364949493606494931
:20121600291E003636000000563600000008142241141414141441221408000201510906B4
:20123600324979413E7E1111117E7F494949363E414141227F4141221C7F494949417F09E1
:201256000901013E414151327F0808087F00417F41002040413F017F081422417F404040F5
:20127600407F0204027F7F0408107F3E4141413E7F090909063E4151215E7F091929464674
:201296004949493101017F01013F4040403F1F2040201F7F2018207F6314081463030478E2
:2012B6000403615149454300007F4141020408102041417F00000402010204404040404001
:2012D600000102040020545454787F484444383844444420384444487F3854545418087E59
:2012F600090102081454543C7F0804047800447D40002040443D00007F10284400417F40E8
:20131600007C041804787C0804047838444444387C14141408081414187C7C080404084803
:2013360054545420043F4440203C4040207C1C2040201C3C4030403C44281028440C5050C8
:20135600503C4464544C44000836410000007F0000004136080008082A1C08081C2A080826
:0700F500E4F515F516C20E3B
:20080000AF8274F855BC4517F5BC8FBB90000112032122D2EC1202EA20ECFDAFBF7E00AC8D
:20082000BE7D00EC4EF582ED4FF58322C0E0C007C006C005C004C0D075D000AFBF7E00ACD3
:1C084000BE7D00EC4EF515ED4FF516D20EC2EDD0D0D004D005D006D007D0E0326F
:0300FC0075180074
:20085C00A20F92C5C2C31202EA30C3FD22D2C4C2C31202EA20C4FD22AF82D20FC0071208D0
:20087C005CD0077408B5C102800C7410B5C102800585C1828029EF2FFFA210E4334FF5C2CB
:20089C00C20F12085C3010057440B5C10A20100C7418B5C102800585C18280037582002253
:2008BC008582C2C2C31202EA30C3FD7428B5C103D38001C392114004AFC180027F008F824B
:2008DC0022AF82C210758250C007120874AE82D007EE600F8E047D00C3E49CF582E49DF598
:2008FC008380668F821208BCE582FE600F8E057F00C3E49DF582E49FF583804DD21075824A
:20091C0050120874E582FE600D7F00C3E49EF582E49FF5838033C2C2C2C31202EA30C3FD2B
:20093C007458B5C102800FAEC17F00C3E49EF582E49FF5838013AEC27F00C007C0061208FA
:20095C0069D006D0078E828F8322AF82C210758250C007120874AE82D007EE600F8E047D0F
:20097C0000C3E49CF582E49DF58380538F821208BCE582FE600F8E057F00C3E49DF582E469
:20099C009FF583803A8519821208BCE582FE600F8E057F00C3E49DF582E49FF58380201226
:2009BC0008691202EAC210758250120874AE82BE200280F17F00C3E49EF582E49FF583222C
:2009DC00AE82E583C4CEC4540F6ECE540FCE6ECE8E19851882120966AE187F008E828F8353
:1709FC00A3751C808F1D1210CDAE828E182253C0BF43C040C2CF32C5
:0500FF00E4F51AF51BF9
:200A130043E7012253E7FE22120A1385081A85091B22E508C3951AFEE509951BFFC37450FA
:150A33009E74C39F5003120A1722758401C2CF758400B2A73283
:0C010400752300E4F524F525F526F52709
:200A4800AE82AF83E52375F004A42401F528740035F0F529852882852983E0F8A3E0F9A3C7
:200A6800E0FAA3E0FBC007C006C000C001C002C0038524828525838526F0E527120CDB8506
:200A8800822485832585F026F527E58124FCF581D006D0078E828F83120F71AA82AB83AE5F
:200AA800F0FFC007C006C003C002C002C003C006C0078524828525838526F0E527120ECF2D
:200AC80085822485832585F026F527E58124FCF581D002D003D006D007852882852983EA67
:200AE800F0EBA3F0EEA3F0EFA3F0C007C006C003C002E4C0E0C0E07480C0E07443C0E085D7
:200B080024828525838526F0E527120FE6A882A983ACF0FDE58124FCF581D002D003D006E6
:200B2800D007C000C001C004C0058A828B838EF0EF120CDBAC82AD83AEF0FFE58124FCF5D6
:200B480081852882852983ECF0EDA3F0EEA3F0EFA3F0AE237F008E828F83A38F1C751D01FA
:200B68001210CDAE828E2322AF82AE23EEFD75F004A42401F582740035F0F583E0F530A32C
:200B8800E0F531A3E0F532A3E0F533852A34852B35852C36852D37852E38852F3985378244
:200BA8008538838539F0E530120E1AA3E531120E1AA3E532120E1AA3E533120E1A853482D9
:200BC8008535838536F0E530120E1AA3E531120E1AA3E532120E1AA3E533120E1AEF2EFFDE
:200BE8000DED75F004A42401F582740035F0F583E0F530A3E0F531A3E0F532A3E0F53385B1
:200C080034828535838536F01210A9F8A31210A9FBA31210A9FCA31210A9FEC007C005C0E0
:200C280000C003C004C0068530828531838532F0E533120E35AE82E58124FCF581D005D00A
:200C480007EE60208534828535838536F0E530120E1AA3E531120E1AA3E532120E1AA3E536
:200C680033120E1A8537828538838539F01210A9FAA31210A9FBA31210A9FCA31210A9FECF
:200C8800C007C005C002C003C004C0068530828531838532F0E533120DEAAE82E58124FCC3
:200CA800F581D005D007EE60208537828538838539F0E530120E1AA3E531120E1AA3E53274
:130CC800120E1AA3E533120E1AEDB507028003020BE822A5
:20137600000000000000000000000000000000000000000000000000000000000000000057
:20139600000000000000000000000000000000000000000000000000000000000000000037
:2013B600000000000000000000000000000000000000000000000000000000000000000017
:2013D6000000000000000000000000000000000000000000000000000000000000000000F7
:2013F6000000000000000000000000000000000000000000000000000000000000000000D7
:201416000000000000000000000000000000000000000000000000000000000000000000B6
:20143600000000000000000000000000000000000000000000000000000000000000000096
:20145600000000000000000000000000000000000000000000000000000000000000000076
:20147600000000000000000000000000000000000000000000000000000000000000000056
:20149600000000000000000000000000000000000000000000000000000000000000000036
:2014B600000000000000000000000000000000000000000000000000000000000000000016
:2014D6000000000000000000000000000000000000000000000000000000000000000000F6
:2014F6000000000000000000000000000000000000000000000000000000000000000000D6
:201516000000000000000000000000000000000000000000000000000000000000000000B5
:20153600000000000000000000000000000000000000000000000000000000000000000095
:20155600000000000000000000000000000000000000000000000000000000000000000075
:20157600000000000000000000000000000000000000000000000000000000000000000055
:20159600000000000000000000000000000000000000000000000000000000000000000035
:2015B600000000000000000000000000000000000000000000000000000000000000000015
:2015D6000000000000000000000000000000000000000000000000000000000000000000F5
:2015F6000000000000000000000000000000000000000000000000000000000000000000D5
:201616000000000000000000000000000000000000000000000000000000000000000000B4
:20163600000000000000000000000000000000000000000000000000000000000000000094
:20165600000000000000000000000000000000000000000000000000000000000000000074
:20167600000000000000000000000000000000000000000000000000000000000000000054
:20169600000000000000000000000000000000000000000000000000000000000000000034
:2016B600000000000000000000000000000000000000000000000000000000000000000014
:2016D6000000000000000000000000000000000000000000000000000000000000000000F4
:2016F6000000000000000000000000000000000000000000000000000000000000000000D4
:201716000000000000000000000000000000000000000000000000000000000000000000B3
:20173600000000000000000000000000000000000000000000000000000000000000000093
:20175600000000000000000000000000000000000000000000000000000000000000000073
:0B0CDB00A8811818C6B2E7C6020ECFB1
:200CE600120D89BC0003020F9EEF60FA30D502B2D1E583B4FF03020FB4E582B4FF03020FF4
:200D0600B4258340072482400B020F9E2483145003020FB4F582EA8DF0A4A8F0EA8EF0A491
:200D260028F8E435F0F9EB8DF0A428E935F0F9E433CA8FF0A429F9EA35F0FAEBF88EF0A41C
:200D460029F9EA35F0FAE433FBEC8DF0A429F9EA35F0FAE43BFBE88FF0A42AFAEB35F0FBC4
:200D6600E433CCFD8EF0A42AFAEB35F0FBE43CFCED8FF0A42BFBEC35F0FC20E703120DB7FD
:030D8600020F7DDC
:200D8900AA82AB83A2F73392D1F5826002D2F7ACF0E58124F9F8E6FD08E6FE0886F008E6CD
:0E0DA900A2F73392D5F5836002D2F7AFF022A5
:0600B800E478FFF6D8FD1C
:200DB7007804EC7011E58224F8500AF582E4C9CACBFCD8EF22EC7820058220E713D582013B
:130DD70022C3E933F9EA33FAEB33FBEC33FCD8EA15822249
:200096007900E94404601B7A04901376780175A200E493F2A308B8000205A2D9F4DAF2757B
:0200B600A2FFA7
:200DEA00FFA8811818120F46D2D133E6400730E70B7582012220E70675820022C2D1120F11
:100E0A0028E97003F5822230D101B3E433F5822256
:1B0E1A0020F71130F6138883A88220F509F6A8837583002280FEF280F5F022D7
:200E3500FFA8811818120F46D2D133E6400730E70B7582002220E70675820122C2D1120FC5
:100E550028E97003F5822220D101B3E433F582221B
:1D0E6500E582851CF0A4C582C0F0851DF0A4D0F025F0C583851CF0A42583F5832213
:200E8200E51C451D60467A01E51C25E0F51CE51D334012F51DE582951CE583951D40030A9D
:200EA20080E6C3E51D13F51DE51C13F51CC3E582951CF5F0E583951D4005F58385F082C36A
:0D0EC200E51D13F51DE51C13F51CDAE122FA
:200ECF00120D897900E583B58202800D5003120FCCE583C39582121116E5D0C465D020E14A
:200EEF0017EA2DFAEB3EFBEC3FFC50097401121116EC4480FC020F7DC3EA9DFAEB9EFBEC7B
:190F0F009FFC500FC3E499F9E49AFAE49BFBE49CFCB2D1120DB7020F7D41
:2000BE007800E84400600A790175A200E4F309D8FC7800E84400600C7900900001E4F0A33E
:0400DE00D8FCD9FA77
:200F28007901AA82E68F82B5821318E6B5F00E18E6B5830918E68A82B58202790022B480C0
:200F48000FE5F0700AE5837006E58270027F00EFB6801518B6001018B6000B18B600060828
:090F68000808760022080808229E
:0C0F7100E4AC83AB82FAF9748E02110C20
:200F7D00B98003EA13B34010EA2401FAE43BFBE43CFC50047C800582BC000EBB000BBA00B8
:200F9D0008E4F5F0F583F58222A2D1E582138CF092F78B838A8222E4F583F58275F080F478
:0F0FBD00A2D11322E4F583F58275F0C0747F2270
:1A0FCC00E582C583F582A2D133A2D592D11392D5ECCFFCEBCEFBEACDFA22AD
:200FE600120D8930D502B2D1BF0009BC0003020FC1020FB4BC0003020F9EE583B4FF0BE522
:2010060082B4FF03020FC1020F9EE582B4FF03020FB4C395835007247F400B020F9E2480BC
:20102600145003020FB4F582C3ED9AEE9BEF9C40111582C3EA33F9EB33FAEC33FBE433FCA3
:201046008005E4CCCBCAF9C08275F019C3E99DEA9EEB9FEC9400D5F002802D400EE99DF9EB
:20106600EA9EFAEB9FFBEC9400FCC3B3E833F8E58233F582E58333F583C3E933F9EA33FA4B
:20108600EB33FBEC33FC80C4B3E4F938FAE43582FBE43583FCD082500405827C80120DB7E3
:0310A600020F95A1
:0D008900758139121159E58260030200866D
:1C10A90020F71430F6148883A88220F507E6A88375830022E280F7E49322E02256
:0810C5007F8612115FF5822203
:2010CD00C2D5E58330E70DD2D5E4C39582F582E49583F583E51D30E70BE4C3951CF51CE41F
:1610ED00951DF51D120E8230D50BE4C39582F582E49583F58322AC
:13110300FCABF0AA83A982749EC2D1F582120DB7020F7D6A
:201116006040F82582500274FFF582E824F8501ECCCBCAF9E4CC24F85014CBCAF9E4CB24E1
:20113600F8500BCAF9E4CA24F8500379002224086010F8C3EC13FCEB13FBEA13FAE913F994
:03115600D8F122AB
:041159007582002279
:20115D007F9E12118430D103020F9EC3EF9582500974FFF5F0F583F5822279001211168935
:07117D00828A838BF0EC2253
:12118400AA82AB83A2F73392D1F5826002D2F7ACF02270
:00000001FF
